{
  "contractName": "Utils",
  "abi": [
    {
      "constant": true,
      "inputs": [
        {
          "name": "sumInEth",
          "type": "uint256"
        }
      ],
      "name": "etherToWei",
      "outputs": [
        {
          "name": "",
          "type": "uint256"
        }
      ],
      "payable": false,
      "stateMutability": "pure",
      "type": "function"
    },
    {
      "constant": true,
      "inputs": [
        {
          "name": "timeInMin",
          "type": "uint256"
        }
      ],
      "name": "minuteToSeconds",
      "outputs": [
        {
          "name": "",
          "type": "uint256"
        }
      ],
      "payable": false,
      "stateMutability": "pure",
      "type": "function"
    }
  ],
  "bytecode": "0x61010d610026600b82828239805160001a60731461001957fe5b30600052607381538281f3fe7300000000000000000000000000000000000000003014608060405260043610603d5760003560e01c806384b47335146042578063d8916bb9146081575b600080fd5b606b60048036036020811015605657600080fd5b810190808035906020019092919050505060c0565b6040518082815260200191505060405180910390f35b60aa60048036036020811015609557600080fd5b810190808035906020019092919050505060cd565b6040518082815260200191505060405180910390f35b6000603c82029050919050565b6000670de0b6b3a76400008202905091905056fea165627a7a7230582063903b4122c6f5ca847892140a6c14e7082d819575a602c6a14cbafa46ddf7250029",
  "source": "pragma solidity ^0.5.0;\n\nlibrary Utils{\n    \n    function etherToWei(uint sumInEth) public pure returns(uint){\n        return sumInEth * 1 ether;\n    }\n\n    function minuteToSeconds(uint timeInMin) public pure returns(uint){\n        return timeInMin * 1 minutes;\n    }\n}",
  "sourcePath": "/home/sherlock/Documents/Crowd-Funding-Project/Crowd-Funding/contracts/Utils.sol",
  "compiler": {
    "name": "solc",
    "version": "0.5.8+commit.23d335f2.Emscripten.clang"
  },
  "schemaVersion": "3.0.11",
  "updatedAt": "2019-07-31T17:12:54.318Z",
  "devdoc": {
    "methods": {}
  },
  "userdoc": {
    "methods": {}
  }
}